{
    "contractName": "SupplyChain",
    "abi": [
        {
            "inputs": [],
            "payable": false,
            "stateMutability": "nonpayable",
            "type": "constructor"
        },
        {
            "anonymous": false,
            "inputs": [
                {
                    "indexed": false,
                    "internalType": "uint256",
                    "name": "sku",
                    "type": "uint256"
                }
            ],
            "name": "LogForSale",
            "type": "event"
        },
        {
            "anonymous": false,
            "inputs": [
                {
                    "indexed": false,
                    "internalType": "uint256",
                    "name": "sku",
                    "type": "uint256"
                }
            ],
            "name": "LogReceived",
            "type": "event"
        },
        {
            "anonymous": false,
            "inputs": [
                {
                    "indexed": false,
                    "internalType": "uint256",
                    "name": "sku",
                    "type": "uint256"
                }
            ],
            "name": "LogShipped",
            "type": "event"
        },
        {
            "anonymous": false,
            "inputs": [
                {
                    "indexed": false,
                    "internalType": "uint256",
                    "name": "sku",
                    "type": "uint256"
                }
            ],
            "name": "LogSold",
            "type": "event"
        },
        {
            "constant": false,
            "inputs": [
                {
                    "internalType": "string",
                    "name": "_name",
                    "type": "string"
                },
                {
                    "internalType": "uint256",
                    "name": "_price",
                    "type": "uint256"
                }
            ],
            "name": "addItem",
            "outputs": [
                {
                    "internalType": "bool",
                    "name": "",
                    "type": "bool"
                }
            ],
            "payable": false,
            "stateMutability": "nonpayable",
            "type": "function"
        },
        {
            "constant": false,
            "inputs": [
                {
                    "internalType": "uint256",
                    "name": "sku",
                    "type": "uint256"
                }
            ],
            "name": "buyItem",
            "outputs": [],
            "payable": true,
            "stateMutability": "payable",
            "type": "function"
        },
        {
            "constant": true,
            "inputs": [
                {
                    "internalType": "uint256",
                    "name": "_sku",
                    "type": "uint256"
                }
            ],
            "name": "fetchItem",
            "outputs": [
                {
                    "internalType": "string",
                    "name": "name",
                    "type": "string"
                },
                {
                    "internalType": "uint256",
                    "name": "sku",
                    "type": "uint256"
                },
                {
                    "internalType": "uint256",
                    "name": "price",
                    "type": "uint256"
                },
                {
                    "internalType": "uint256",
                    "name": "state",
                    "type": "uint256"
                },
                {
                    "internalType": "address",
                    "name": "seller",
                    "type": "address"
                },
                {
                    "internalType": "address",
                    "name": "buyer",
                    "type": "address"
                }
            ],
            "payable": false,
            "stateMutability": "view",
            "type": "function"
        },
        {
            "constant": true,
            "inputs": [
                {
                    "internalType": "uint256",
                    "name": "",
                    "type": "uint256"
                }
            ],
            "name": "items",
            "outputs": [
                {
                    "internalType": "string",
                    "name": "name",
                    "type": "string"
                },
                {
                    "internalType": "uint256",
                    "name": "sku",
                    "type": "uint256"
                },
                {
                    "internalType": "uint256",
                    "name": "price",
                    "type": "uint256"
                },
                {
                    "internalType": "address payable",
                    "name": "seller",
                    "type": "address"
                },
                {
                    "internalType": "address payable",
                    "name": "buyer",
                    "type": "address"
                },
                {
                    "internalType": "enum SupplyChain.State",
                    "name": "state",
                    "type": "uint8"
                }
            ],
            "payable": false,
            "stateMutability": "view",
            "type": "function"
        },
        {
            "constant": true,
            "inputs": [],
            "name": "owner",
            "outputs": [
                {
                    "internalType": "address",
                    "name": "",
                    "type": "address"
                }
            ],
            "payable": false,
            "stateMutability": "view",
            "type": "function"
        },
        {
            "constant": false,
            "inputs": [
                {
                    "internalType": "uint256",
                    "name": "sku",
                    "type": "uint256"
                }
            ],
            "name": "receiveItem",
            "outputs": [],
            "payable": false,
            "stateMutability": "nonpayable",
            "type": "function"
        },
        {
            "constant": false,
            "inputs": [
                {
                    "internalType": "uint256",
                    "name": "sku",
                    "type": "uint256"
                }
            ],
            "name": "shipItem",
            "outputs": [],
            "payable": false,
            "stateMutability": "nonpayable",
            "type": "function"
        },
        {
            "constant": true,
            "inputs": [],
            "name": "skuCount",
            "outputs": [
                {
                    "internalType": "uint256",
                    "name": "",
                    "type": "uint256"
                }
            ],
            "payable": false,
            "stateMutability": "view",
            "type": "function"
        }
    ],
    "bytecode": "608060405234801561001057600080fd5b50600080546001600160a01b03191633178155600155610a66806100356000396000f3fe60806040526004361061007b5760003560e01c8063ad4b9cfb1161004e578063ad4b9cfb146101cd578063bfb231d21461029e578063e7fb74c71461033d578063f61c899a1461035a5761007b565b8063227024731461008057806362d6bbdf146100a75780638da5cb5b14610170578063a26be999146101a1575b600080fd5b34801561008c57600080fd5b50610095610384565b60408051918252519081900360200190f35b3480156100b357600080fd5b5061015c600480360360408110156100ca57600080fd5b8101906020810181356401000000008111156100e557600080fd5b8201836020820111156100f757600080fd5b8035906020019184600183028401116401000000008311171561011957600080fd5b91908080601f016020809104026020016040519081016040528093929190818152602001838380828437600092019190915250929550509135925061038a915050565b604080519115158252519081900360200190f35b34801561017c57600080fd5b5061018561049d565b604080516001600160a01b039092168252519081900360200190f35b3480156101ad57600080fd5b506101cb600480360360208110156101c457600080fd5b50356104ac565b005b3480156101d957600080fd5b506101f7600480360360208110156101f057600080fd5b5035610569565b604080516020808201889052918101869052606081018590526001600160a01b038085166080830152831660a082015260c080825288519082015287519091829160e08301918a019080838360005b8381101561025e578181015183820152602001610246565b50505050905090810190601f16801561028b5780820380516001836020036101000a031916815260200191505b5097505050505050505060405180910390f35b3480156102aa57600080fd5b506102c8600480360360208110156102c157600080fd5b503561067d565b60408051602081018790529081018590526001600160a01b038085166060830152831660808201528060a0810183600381111561030157fe5b60ff168152602001828103825288818151815260200191508051906020019080838360008381101561025e578181015183820152602001610246565b6101cb6004803603602081101561035357600080fd5b503561074a565b34801561036657600080fd5b506101cb6004803603602081101561037d57600080fd5b50356108da565b60015481565b6040805160c081018252838152600154602080830182905282840185905233606084015260006080840181905260a084018190529182526002815292812082518051929491926103dd9284920190610996565b5060208201516001820155604082015160028201556060820151600380830180546001600160a01b039384166001600160a01b03199182161790915560808501516004850180549190941691161780835560a0850151929160ff60a01b1990911690600160a01b90849081111561045057fe5b0217905550506001805481019081905560408051918252517f4627c48065af2a9648cbecdd4b9da340c00e501243cd49a8a71c30c987e8b76192509081900360200190a150600192915050565b6000546001600160a01b031681565b806002600082815260026020526040902060040154600160a01b900460ff1660038111156104d657fe5b146104e057600080fd5b60008281526002602052604090206004015482906001600160a01b0316331461050857600080fd5b600083815260026020526040902060040180546003919060ff60a01b1916600160a01b8302179055506040805184815290517f5a98827d06afe0e04647b3aed26f1ffb77171ad9ac41603c4ef623a6638798c19181900360200190a1505050565b6000818152600260208181526040808420805482516001821615610100026000190190911694909404601f8101849004840285018401909252818452606094938493849384938493929091908301828280156106065780601f106105db57610100808354040283529160200191610606565b820191906000526020600020905b8154815290600101906020018083116105e957829003601f168201915b50505060008a8152600260208190526040909120600181015491810154600490910154949a5090985096505050600160a01b900460ff16600381111561064857fe5b600088815260026020526040902060038101546004909101549194506001600160a01b03908116935016905091939550919395565b600260208181526000928352604092839020805484516001821615610100026000190190911693909304601f810183900483028401830190945283835292839183018282801561070e5780601f106106e35761010080835404028352916020019161070e565b820191906000526020600020905b8154815290600101906020018083116106f157829003601f168201915b50505050600183015460028401546003850154600490950154939491939092506001600160a01b0391821691811690600160a01b900460ff1686565b8060008082815260026020526040902060040154600160a01b900460ff16600381111561077357fe5b14801561079157506000818152600260208190526040909120015415155b61079a57600080fd5b60008281526002602081905260409091200154348111156107ba57600080fd5b60008381526002602081905260408083206003810154920154905186936001600160a01b0390931692839280156108fc02929091818181858888f1935050505015801561080b573d6000803e3d6000fd5b50600085815260026020526040902060040180546001600160a01b03191633178082556001919060ff60a01b1916600160a01b8302179055506040805186815290517fe64ca8c671e48636f85f3008c1dd538e36bfa74fb6f2790b56b72fcc33b879ef9181900360200190a1506000818152600260208190526040808320918201546004909201549051919234849003926001600160a01b0390921691829184156108fc02918591818181858888f193505050501580156108d0573d6000803e3d6000fd5b5050505050505050565b806001600082815260026020526040902060040154600160a01b900460ff16600381111561090457fe5b1461090e57600080fd5b60008281526002602052604090206003015482906001600160a01b0316331461093657600080fd5b6000838152600260208190526040909120600401805460ff60a01b1916600160a01b8302179055506040805184815290517feaf695929fec8154f0eafe7248c0e16855eb9ad09e623be92f669e544d53e8569181900360200190a1505050565b828054600181600116156101000203166002900490600052602060002090601f016020900481019282601f106109d757805160ff1916838001178555610a04565b82800160010185558215610a04579182015b82811115610a045782518255916020019190600101906109e9565b50610a10929150610a14565b5090565b610a2e91905b80821115610a105760008155600101610a1a565b9056fea265627a7a72315820a17954f5b8fb066155ecf22f322dcc05e90d4619b9ca8f19b7bf0f2bae79ddaf64736f6c63430005100032",
    "sourcePath": "/home/edangelo/github-classroom/ConsenSys-Academy-Github-Classroom/supply-chain-exercise-edangelo2/contracts/SupplyChain.sol",
    "compiler": {
        "name": "solc",
        "version": "0.5.16+commit.9c3226ce"
    },
    "functionHashes": {
        "addItem(string,uint256)": "62d6bbdf",
        "buyItem(uint256)": "e7fb74c7",
        "fetchItem(uint256)": "ad4b9cfb",
        "items(uint256)": "bfb231d2",
        "owner()": "8da5cb5b",
        "receiveItem(uint256)": "a26be999",
        "shipItem(uint256)": "f61c899a",
        "skuCount()": "22702473"
    },
    "gasEstimates": {
        "creation": {
            "codeDepositCost": "532400",
            "executionCost": "26406",
            "totalCost": "558806"
        },
        "external": {
            "addItem(string,uint256)": "infinite",
            "buyItem(uint256)": "infinite",
            "fetchItem(uint256)": "infinite",
            "items(uint256)": "infinite",
            "owner()": "1082",
            "receiveItem(uint256)": "24111",
            "shipItem(uint256)": "24110",
            "skuCount()": "999"
        }
    }
}